:040000000C943B021F
:040038000C944005DF
:040048000C94EB0425
:040054000C942C05D7
:080074000C944F050C945E058D
:14008C00144BF4EE4554C71FC64A000000000000004F000041
:1400A0000007000700147F147F14242A7F2A122313086462F7
:1400B40036495522500005030000001C2241000041221C00EC
:1400C80014083E081408083E080800503000000808080808A8
:1400DC00006060000020100804023E5149453E00427F4000B6
:1400F00042615149462141454B311814127F1027454545395A
:140104003C4A49493001710905033649494936064949291EF6
:140118000036360000005636000008142241001414141414F8
:14012C0000412214080201510906324979413E7E1111117E3B
:140140007F494949363E414141227F4141221C7F494949411E
:140154007F090909013E4149497A7F0808087F00417F41005A
:140168002040413F017F081422417F404040407F020C027F17
:14017C007F0408107F3E4141413E7F090909063E4151215E27
:140190007F09192946464949493101017F01013F4040403F38
:1401A4001F2040201F3F403C403F63140814630708700807CB
:1401B8006151494543007F41410002040810200041417F0070
:1401CC00040201020440404040400001020400205454547837
:1401E0007F484444383844444420384444487F38545454188D
:1401F400087E0901020C5252523E7F0804047800087A00009C
:140208002040443D007F1028440000407F40007C0418047CEF
:14021C007C0804047838444444387C14141408081414187C0A
:140230007C080404084854545420043F4440203C4040207C83
:140244001C2040201C3C4020403C44281028440C5050503CB6
:140258004464544C4400083641000000770000004136080091
:14026C0008040810083E5149453E00427F4000426151494673
:140280002141454B311814127F1027454545393C4A49493003
:1402940001710905033649494936064949291E7E1111117E7E
:1402A8007F494949363E414141227F4141221C7F49494941B5
:1402BC007F090909015A6967626565204D61696E426F617214
:1402D000642056312E302020202020202020202020004952B6
:1402E4002053454E53494E470054454D5020445720414952E2
:1402F800434F4E204F46460054454D502055502041495243DD
:14030C004F4E204F4E2000474153204E4F2053454E53494EDB
:1403200047004741532053454E53494E4700524649442049E2
:14033400442052454345564500524649442052454345564598
:140348002020202000504C3331353020544F204156520044AC
:14035C00415441204F4B20200044415441204641494C004C1B
:1403700049474854204C4556454C202030004C4947485420AD
:140384004C4556454C202031004C49474854204C4556454C6C
:14039800202032004C49474854204C4556454C202033004C10
:1403AC0049474854204C4556454C202034004C49474854206D
:1403C0004C4556454C202035004C49474854204C4556454C2C
:1403D400202036004C49474854204C4556454C202037004CCC
:1403E80049474854204C4556454C202038004C49474854202D
:1403FC004C4556454C202039004C49474854204C4556454CEC
:14041000203130004C49474854204C4556454C203131004C79
:1404240049474854204C4556454C203132004C4947485420E5
:140438004C4556454C203133004C49474854204C4556454CA4
:14044C00203134004C49474854204C4556454C203135004B36
:14046000455920322050555348004B4559203120505553489E
:010474000087
:14047600CFEFD0E1CDBFDEBFC051D0400AEA08830024E4EB47
:14048A00F2E013E0E739F10711F00192FBCF0083E1ECF2E001
:14049E00A0E0B1E014E0E537F10721F0C89531960D92F9CF95
:1404B2000E94A807FFCF80E88BBBD7980000000000008091E9
:1404C600620081608093620000000000000080916200826015
:1404DA0080936200000000000000C29A000000000000C198E4
:1404EE00000000000000C39A00000000000000000000C39842
:140502000000000000000000000000000000000000000000E5
:1405160000000000000000000000D79A00000000000080914F
:14052A0062008E7F80936200809162008D7F80936200089548
:14053E000E940B09A901B801B8DF6030670729F0C19A000087
:140552000000000004C0C1980000000000004030450729F0A3
:14056600C29A00000000000004C0C298000000000000209057
:14057A00620033240C801D80202831282092620000000000D6
:14058E0000000E94EB0808950E94F408A80122978CDF83E059
:1405A20090E0888399832227332700271127C6DFCA01885460
:1405B6009F4F8BBB000000000000C39A0000000000000000A0
:1405CA000000C3980000000000000000000081E090E08883E6
:1405DE0099832227332700271127AADF84E48BBB00000000B4
:1405F2000000C39A00000000000000000000C398000000003D
:1406060000000000000082E090E0888399832227332700271D
:14061A00112790DF80E48BBB000000000000C39A000000001E
:14062E00000000000000C398000000000000000000002296A5
:140642000E94F70808950E940F09B9015801229744E050E08C
:14065600888599858230E0E09E0709F4442708841984088233
:14066A001982222733270027112764DFC50188549F4F8BBBC6
:14067E00000000000000C39A00000000000000000000C398B0
:140692000000000000000000000008841984088219822227BD
:1406A60033270027112748DF06E010E09B010E94DB08CA019E
:1406BA00805C9F4F800F911F8BBB000000000000C39A000080
:1406CE000000000000000000C39800000000000000000000BD
:1406E20022960E94EE0808950E940F09B80122974427552704
:1406F6006883798322273327002711271DDFCA0188549F4F76
:14070A008BBB000000000000C39A0000000000000000000038
:14071E00C398000000000000000000006883798322273327E2
:140732000027112703DF80E48BBB000000000000C39A00006B
:140746000000000000000000C3980000000000000000000044
:14075A00AA24BB24688379832227332701E010E0E9DE222476
:14076E002BBA000000000000C39A0000000000000000000035
:14078200C3980000000000000000000094DEC50101965C01DC
:140796008034E0E09E0704F34F5F5F4F4830E0E05E070CF446
:1407AA00A5CF22960E94EE0808950E940F09B901A02E2297DF
:1407BE0044275527688379832227332701E010E0B7DE84E0EC
:1407D20090E08417950794F422242BBA000000000000C39A5C
:1407E60000000000000000000000C3980000000000000000A4
:1407FA0000001BC085E08A9D100186EF9FEF280E391EFA01E8
:14080E00E20DF31DE491EBBB000000000000C39A000000005F
:14082200000000000000C3980000000000000000000041DE48
:140836004F5F5F4F4630E0E05E070CF4BFCF22960E94EE08D9
:14084A0008950E94130968014427552786010E94BB08A8015A
:14085E0061E070E0AA24BB2410C0C5018A30E0E09E0714F08F
:1408720062E070E09B01F501EC0DFD1D008199DFC5010196E5
:140886005C01A416B5066CF30E94F10808950E941309B9017D
:14089A00402F14E6042F0E94C908802F805DC82E14E6042F8C
:1408AE000E94C90884E6809F042F00191AE00E94C908802FD2
:1408C200805DA82E14E6042F0E94C90884E6809F042F0019FA
:1408D6001AE00E94C708402F405D9B010C2D67DF9B010A2DA9
:1408EA0064DF9B01042F61DF0E94F10808952297DEDD83E099
:1408FE0090E088839983222733270027112718DE8FE38BBB9F
:14091200000000000000C39A00000000000000000000C39819
:140926000000000000000000000003E010E0DADE83E090E05F
:14093A00888399832227332700271127FBDD80EC8BBB0000F6
:14094E0000000000C39A00000000000000000000C3980000DD
:1409620000000000000000002296089522242BBA8FEF8ABB3E
:1409760088BB87BB85BB84BB82BB8BE881BB8FEF83B98EEF46
:14098A0082B980EF8093620083E080936100089522242AB89E
:14099E002BB886E0809395008FE289B92092900088E98AB9AB
:1409B2000895222420929A0020929B0086E080939D008FE22E
:1409C600809399002092980088E980939A0008952A920A9313
:1409DA001A938A939A93EA93FA932FB62A9281E093E0E09122
:1409EE00CE02FF27E80FF91F2CB02082809101038230F1F4C6
:140A02008091CE028F5F8093CE02082F11270130E0E01E07A9
:140A160049F00130E0E01E0794F00530E0E01E0719F00DC009
:140A2A00AC980BC0AC9A81E08093CC0222242092CE0203C096
:140A3E0022242092CE0229902FBEF991E99199918991199144
:140A52000991299018952A923A928A932FB62A9224B035B091
:140A66003092BE022092BD0281E08093BC0229902FBE899197
:140A7A003990299018952A928A932FB62A9222242DBC81E02F
:140A8E008CBD8093BB0229902FBE8991299018958A938FB7B2
:140AA2008A938FE18093890081E0809388008093BA02899132
:140AB6008FBF899118952A920A931A938A939A93EA93FA93BD
:140ACA002FB62A928FEC92E0E091CD02FF27E80FF91F209065
:140ADE009C0020828091CF02823031F58091CD028F5F80932B
:140AF200CD02082F11270130E0E01E0769F00130E0E01E072D
:140B0600D4F00830E0E01E0739F00A30E0E01E0739F011C0B8
:140B1A00A8980FC081E08093CA020BC0A89A81E08093CB022A
:140B2E0022242092CD0203C022242092CD0229902FBEF99132
:140B4200E9919991899119910991299018950CB95D9BFECFAD
:140B56005D9A08950E940B09602FA998442709C085E693E05F
:140B6A00E42FFF27E80FF91F0081EDDF43954617A8F3A99ACF
:140B7E000E94EB08089500939C0020909B0025FEFCCF8091B8
:140B92009B00806280939B0008950E940B09602F442709C00E
:140BA60083E393E0E42FFF27E80FF91F0081F3DF4395461792
:140BBA00A8F30E94EB080895222426B827B826B80895222793
:140BCE0033278EE986B982E487B9789422242092BC02369ACB
:140BE2002090BC022220E1F386B18F7B86B9F8942091BD02FF
:140BF6003091BE02337089011695079516950795222426B88B
:140C0A00789411270895B49913C00027112700000F5F1F4F9A
:140C1E000031E7E21E07CCF3B49905C081E08093C90201C0D2
:140C32000000B49BFDCF18C0B59913C00027112700000F5FCD
:140C46001F4F0031E7E21E07CCF3B59905C082E08093C902FB
:140C5A0001C00000B59BFDCF03C022242092C902089507E09F
:140C6E0010E092DC09EA12E0EADD2090B702222039F480ED23
:140C82008093670381E08093B70206C08DED809367032224B1
:140C96002092B70283EA8093660304E05BCF07E010E076DCBF
:140CAA000EE912E0CEDD2090B602222039F480ED80936703E1
:140CBE0081E08093B60206C08DED8093670322242092B60289
:140CD20084EA8093660304E03FCF0E94F4084091C90255277C
:140CE6004030450799F04130E0E05E0729F04230E0E05E076F
:140CFA0031F00DC0B6DF22242092C90208C0CDDF2224209234
:140D0E00C90203C022242092C9020E94F70808950E94F408A4
:140D2200402F06E010E036DC483C20F00FE812E08CDD77C049
:140D36004E3B30F0483C20F400E812E084DD6FC0443B30F05F
:140D4A004E3B20F401E712E07CDD67C04A3A30F0443B20F467
:140D5E0002E612E074DD5FC0403A30F04A3A20F403E512E02B
:140D72006CDD57C0463930F0403A20F404E412E064DD4FC0B6
:140D86004C3830F0463920F405E312E05CDD47C0423830F06E
:140D9A004C3820F406E212E054DD3FC0483730F0423820F476
:140DAE0007E112E04CDD37C04E3630F0483720F408E012E026
:140DC20044DD2FC0443630F04E3620F409EF11E03CDD27C0F2
:140DD6004A3530F0443620F40AEE11E034DD1FC0403530F06E
:140DEA004A3520F40BED11E02CDD17C0463430F0403520F476
:140DFE000CEC11E024DD0FC04C3330F0463420F40DEB11E012
:140E12001CDD07C0423328F04C3318F40EEA11E014DD0E9478
:140E2600F70808950E940F0943E383E3A82E8091D2028F305C
:140E3A0009F04FC0662713C083ED92E0E62FFF27E80FF91F10
:140E4E0020808CE890E0E62FFF27E80FF91FE491E21511F055
:140E620046E6A89A6395653058F3662713C083ED92E0E62FDF
:140E7600FF27E80FF91F208081E990E0E62FFF27E80FF91F6F
:140E8A00E491E21511F086E6A82E6395653058F34636A9F4B4
:140E9E008A2D863649F403E010E076DB04EA11E0CEDC06E6F7
:140EB20010E013C003E010E06DDB0AE911E0C5DC03E310E0F3
:140EC6000AC0433341F403E010E062DB0AE911E0BADC03E333
:140EDA0010E00E94EE080895F89422242CBE20926D0040DDE7
:140EEE0055DD61DD67DE22242092CB022092CC022092CD0275
:140F02002092CD022092CA0282E08093650383E0809368031E
:140F160022242092BC022092BB022092BA0233243092B50264
:140F2A002092B4022092B9022092B7022092B60225BE209274
:140F3E006A0022242ABE29BE27BE20927D0078940895C8DFBC
:140F5200A898A9984427552700004F5F5F4F4031E7E25E0728
:140F6600CCF3C7DC0027112713DB0CE811E06BDCA89AA99A17
:140F7A0022242EBC2DBC81E08CBD84E08EBD87BFF3C041DED9
:140F8E00A6DE2090CB02222039F122242092CB0202E010E04B
:140FA200F9DA0CE711E051DC3FDF00936703033311F4AA98BF
:140FB60001C0AA9A81EA8093660304E0CBDD222420928A002D
:140FCA008FE18093890081E08093880020928B0084E0809357
:140FDE008A0080937D0078942090CA02222079F022242092BA
:140FF200CA028091D202803F41F42092CD0202E010E0C8DA51
:141006000DE611E020DC2090CC02222009F446C0222420923B
:14101A00CC02609102037727603EE0E07E0751F0613EE0E0DD
:14102E007E0709F434C0623EE0E07E0799F032C080910303C1
:14104200893138F004E010E0A5DA01E611E0FDDB27C004E0EA
:1410560010E09EDA02E511E0F6DB20C0A0900403BB242090CF
:14106A0003033324322C2224A228B328C5018238E0E09E07E7
:14107E0038F005E010E088DA0FE311E0E0DB0AC005E010E0C2
:1410920081DA0CE211E0D9DB03C0009103033EDE2090BA027A
:1410A6002220C9F022242092BA028091B9028F5F8093B902FF
:1410BA00823078F020928A0020927D002092B90281EA8093B2
:1410CE00660386E68093670304E040DDAA9A8091BB028130F8
:1410E20009F046C08091B4029091B50201969093B5028093D8
:1410F600B40222242092BB022EBC33243092B5022092B40259
:14110A002092BB025EDD0093B8020E31B0F0AB9801E010E0E7
:14111E003BDA01E211E093DB82E08093650382EA80936603A1
:1411320085E58093670383E08093680304E00CDD15C001E05E
:1411460010E026DA05E111E07EDBAB9A82E08093650382EAE7
:14115A008093660387E78093670383E08093680304E0F6DC83
:14116E0084E08EBD0CCF0895E02FF12FAA27BB2701900020B3
:1411820011F01196FBCF0A2F1B2F0895689401C0E8942A93D1
:14119600FA92FF2428E0000FFF1CF11610F0F11A03952A95FB
:1411AA00C1F70EF40F2DF990299108950A921A928A939A93C9
:1411BE00029FC001129F900D039F900D8C01999189911990B4
:1411D20009900895E2E00C94F808E4E00C94F808E8E00C94A5
:1411E600F8085A934A930895E1E049915991E0FD0895699195
:1411FA007991E1FD0895A990B990E2FD0895C990D990E3FDBC
:14120E000895E990F99008957A936A930C94F408BA92AA9262
:0C1222000C940B09DA92CA920C940F098C
:00000001FF

