:0200000012C02C
:020010003FC0EF
:0200160055C0D3
:02001C005BC0C7
:14002600CFE5D4E0CDBFDEBFC051D0400AEA08830024E0E6AB
:14003A00F0E010E0E337F10711F00192FBCF0083E6E2F0E067
:14004E00A0E6B0E010E0E632F10721F0C89531960D92F9CFEC
:140062007FD1FFCF8FEF88BB87E087BB8FE785BB82E384BBA8
:140076008FEF82BB8EEF81BB089522242EBC8FEC8DBD8CE202
:14008A008CBD2FBC08958A938FB78A938FEC8DBD8CE28CBD95
:14009E0081E08093720089918FBF8991189522242AB82BB82E
:1400B20086E080BD83E389B920BC88E98AB9089518952224CF
:1400C60026B827B880E888B98BE086B908952A923A928A93D4
:1400DA002FB62A9224B035B0309269002092680081E08093FF
:1400EE00710029902FBE8991399029901895BFD1809160009D
:140102008F5F80936000402F5527403EE0E05E0751F0413E3A
:14011600E0E05E0751F1423EE0E05E0709F449C074C08EE918
:14012A0086B980E487B97894222420927100369A2090710078
:14013E002220E1F386B18F7B86B9F8946091680070916900C8
:140152006C7F73701B01369427943694279420926500222448
:1401660026B866277727789450C08EE986B982E487B97894F8
:14017A00222420927100369A209071002220E1F386B18F7BC0
:14018E0086B9F89460916800709169006C7F73701B0136941B
:1401A20027943694279420926600222426B866277727789496
:1401B6002CC08EE986B983E487B97894222420927100369AA7
:1401CA00209071002220E1F386B18F7B86B9F8946091680085
:1401DE00709169007370462F40705370242E3324232C332489
:1401F20027FC309420926300CB01907080936200222426B898
:14020600662777277894209260001CD108951CD1083C10F0E0
:14021A0044276FC00E3B20F0083C10F441E069C0043B20F0FC
:14022E000E3B10F442E063C00A3A20F0043B10F443E05DC053
:14024200003A20F00A3A10F444E057C0063920F0003A10F44E
:1402560045E051C00C3820F0063910F446E04BC0023820F04C
:14026A000C3810F447E045C0083720F0023810F448E03FC058
:14027E000E3620F0083710F449E039C0043620F00E3610F421
:140292004AE033C00A3520F0043610F44BE02DC0003520F051
:1402A6000A3510F44CE027C0063420F0003510F44DE021C05D
:1402BA000C3320F0063410F44EE01BC0023320F00C3310F412
:1402CE004FE015C0083220F0023310F44FE10FC00E3120F047
:1402E200083210F44FE309C0043120F00E3110F44FE703C04E
:1402F600043108F44FEF042F1127A9D00895F894AFDEBBDE52
:14030A00D0DEDBDE222425BE2BBE85E089BF20927200A99A52
:14031E00209267002092610082E080936A0083E080936F00DB
:14033200789408955D9BFECF0CB95D9A08959DD0602F442789
:1403460009C08AE690E0E42FFF27E80FF91F0081EFDF43958B
:14035A004617A8F375D00895D0DFA99A22242EBC8FEC8DBDCE
:14036E0080E28CBD83E08EBD84E089BF80917200813041F40D
:14038200809167008F5F8093670022242092720080916700A5
:14039600863080F3809161008F5F8093610022242EBC9598F9
:1403AA00482F55274130E0E05E0749F04230E0E05E07B1F045
:1403BE004330E0E05E0719F135C000EE98DE80EE80936B0044
:1403D2002090650020926C008FEF80936D00022D18DF00932D
:1403E6006E0024C001EE87DE81EE80936B00209066002092A8
:1403FA006C008FEF80936D00022D07DF00936E0013C002EEAC
:14040E0076DE82EE80936B002090630020926C002090620055
:1404220020926D008FEF80936E0022242092610006E085DF05
:1404360022242092720020926700959A83E08EBD99CF08954D
:14044A00E2E004C05A934A930895E1E049915991E0FD0895B2
:14045E0069917991E1FD0895A990B990E2FD0895C990D9904B
:10047200E3FD0895E990F99008957A936A93E6CF9F
:00000001FF

