:100000002DC046C045C044C043C042C041C040C0EE
:100010003FC03EC03DC03CC03BC03AC039C038C004
:1000200037C036C035C06AC405C35FC43FC454C3BB
:100030005FC313C451C35CC3F1C34EC359C3CCC324
:100040004BC356C357C3BDC3AFC35EC4050601014E
:100050004040404040010404044C4C0411241FBEA5
:10006000CFE5D4E0DEBFCDBF10E0A0E6B0E0EEED1E
:10007000FAE002C005900D92A036B107D9F711E061
:10008000A0E6B0E001C01D92A034B107E1F74AC27A
:10009000B7CF8FE188BB80E287BB86E385BB8EE06C
:1000A00084BB8FEF82BB11BA0895009711F00197BE
:1000B000F1F708955D9BFECF8CB90895AC98A49A92
:1000C00088E090E0F2DFAD98A59A0895AC98A49AE4
:1000D00088E090E0EADFA598AD9A86E090E0E5DF61
:1000E000A498AC9A0895882319F0A498AC9A02C0F9
:1000F000AC98A49A83E090E0D8DFA598AD9A86E00A
:1001000090E0D3DFAD98A59A08951F93CF93C82FA1
:1001100017E010C0AC98A49A86E090E0C6DFA598DE
:10012000AD9ACC0F85E090E0C0DFAD98A59A115054
:1001300017FD12C0C7FFEECFA498AC9A86E090E0FE
:10014000B4DFA598AD9ACC0F85E090E0AEDFAD9816
:10015000A59A115017FFEECFA498AC9A86E090E0D4
:10016000A4DF9C990260A598AD9A86E090E09DDF9F
:10017000AD98A59ACF911F9108951F93CF9310E04A
:10018000A498AC9AC7E0A598AD9A86E090E08DDF80
:10019000110F9C991160AD98A59A86E090E085DFDB
:1001A000C150C7FFF0CF812F9927CF911F9108959C
:1001B0001F93182F0D7F82DF80E8A7DF80E5A5DF82
:1001C000812FA3DF83DF1F910895BF92CF92DF922B
:1001D000EF92FF921F93CF93DF93182FB62EB39415
:1001E0000D7F6CDF80E891DF8FE58FDF812F8DDF62
:1001F0006DDF802F9927EC01C270D07081FD2FC078
:1002000088EE93E052DF10922F0158DF81E87DDF06
:1002100010E01B1518F5CB2CDD240894C108D1087B
:1002200006C080E060DF1F5F21961B15B8F4809147
:100230002F01E82EFF2421E630E0E20EF31E8F5F4F
:1002400080932F019ADFF7018083CC15DD0549F7F4
:1002500081E049DF1F5F21961B1548F337DFDF91EF
:10026000CF911F91FF90EF90DF90CF90BF900895B6
:10027000CF93DF930D7F22DF80E847DF8EE545DFF8
:1002800083E043DF23DF01FD18C088EE93E00DDF3C
:100290000D7F14DF81E839DF70DF6FDF80933F016E
:1002A00015DF802F9927EC01C270D07081FD05C049
:1002B00088EE93E0FADECE0102C08FEF90E0DF918E
:1002C000CF910895FF921F93182FF62E0D7FF6DE23
:1002D00080E81BDF812F19DF8F2D17DFF7DE1F91DD
:1002E000FF900895EF92FF921F93CF93DF931092A8
:1002F00007010D7FE3DE81E808DFC0E0D0E01CE10C
:1003000006C080E0F0DE1150219617FD17C08091E5
:100310000701E82EFF2421EE30E0E20EF31E8F5F8E
:10032000809307012ADFF7018083CC31D10549F79B
:1003300081E0D9DE1150219617FFE9CFC7DE01FD1C
:100340000CC088EE93E0B1DE83B399279C01217045
:10035000307080FDF9CFC90102C081EF90E0DF91DC
:10036000CF911F91FF90EF900895CF93DF930D7F72
:10037000A5DE80E8CADE8FE5C8DE8DE0C6DEA6DE3B
:1003800001FD0FC088EE93E090DE83B39927EC0166
:10039000C170D07080FDF9CFA5DF8F3F11F0CE0185
:1003A00002C08FEF90E0DF91CF910895CF93DF935C
:1003B0000D7F84DE80E8A9DE8FE5A7DE8EE0A5DE76
:1003C00085DE01FD0FC088EE93E06FDE83B39927D1
:1003D000EC01C170D07080FDF9CF84DF8F3F29F030
:1003E000CE0105C082EF90E002C083EF90E0DF9184
:1003F000CF910895EF92FF92CF930D7F5FDE80E85B
:1004000084DE89E582DE80E080DE82E3E82E81E022
:10041000F82EC5E0F70181917F0177DEC150C7FF5B
:10042000F9CF54DE01FD0CC088EE93E03EDE83B3CD
:1004300099279C012170307080FDF9CFC90102C05D
:1004400084EF90E0CF91FF90EF9008950D7F36DE1E
:1004500080E85BDE80E559DE89E057DE37DE01FDAE
:100460000CC088EE93E021DE83B399279C012170B4
:10047000307080FDF9CFC901089585EF90E00895AF
:100480000D7F1CDE80E841DE80E53FDE8DE03DDE55
:100490001DDE01FD0CC088EE93E007DE83B39927D3
:1004A0009C012170307080FDF9CFC901089586EF5D
:1004B00090E00895CF93C82FE82FFF27EE30F10585
:1004C0006CF4E830F1051CF43197359748F58C2F22
:1004D0006FDE01FF24C08FEF8CB922C0CF0180589E
:1004E00090404097E8F4EF70F070E45BFF4F849128
:1004F000682F8C2F8F7069DE01FDEDCFC1E08091F8
:100500002F01C81768F4EC2FFF27EF59FF4F8081A8
:10051000D1DDCF5F80912F01C817A8F301C0CCB9FE
:10052000CF910895CFE5D4E0DEBFCDBFB2DD80E24C
:100530009EE4BBDDAA9880E197E2B7DDAA9A80E14C
:1005400097E2B3DD10BC89E189B988E18AB98BE013
:1005500085BD89EF83BDC5988FEF97E0A0E0B0E03F
:100560008093FD009093FE00A093FF00B0930001E4
:1005700081E080932E01282F08B607FC15C05F9BF1
:10058000FBCF9CB180913E01803240F4E82FFF27E1
:10059000E65FFE4F90838F5F80933E01863081F04F
:1005A000C59808B607FEEBCF88B7806888BF8799E3
:1005B00034C02130B9F0C13051F020912E01DFCF8D
:1005C000C1E0C093090110923E01C598EACF809125
:1005D00009019927AA27BB27FC01439770F7ED5E15
:1005E000FF4F09948091FD009091FE00A091FF00C3
:1005F000B09100010097A105B105C1F410922E0140
:100600008FEF97E0A0E0B0E08093FD009093FE00B4
:10061000A093FF00B0930001CECF809160008823AB
:1006200041F682E28CB980936000C3CF0197A109A3
:10063000B109EACF20912E01213009F4B2C15091C5
:100640000A01593309F47AC130910B0140910C0130
:1006500020910D0190910E0180910F0113E51CB9BD
:10066000509330011092310130932A0110922B01E6
:1006700040932C0110922D01209301011092020150
:1006800090930301109204018093050110920601DA
:10069000209338011092390190933A0110923B0156
:1006A00080933C0110923D0110923201109233016F
:1006B00010923401109235011092360110923701D8
:1006C00063E080E5FFDD80E593ECEFDC6FE1812FF7
:1006D000F9DD80E593ECE9DC8DDE80E593ECE5DC8B
:1006E000809109018F5F8093090120912E0147CFEE
:1006F000ADDEF3CF5BDE182F88E893E1D6DC809186
:1007000030012091EE00821709F496C1112321F0E7
:1007100082E1809309011CB9222309F04ECF809118
:10072000EF00882309F049CF8091F000882309F079
:1007300044CF8091F100882309F03FCF8091F200EF
:10074000882309F03ACF8091F300882309F035CF50
:100750008091F400882309F030CF8091F500882340
:1007600009F02BCF8091F600882309F026CF8091E5
:10077000F700882309F021CF8091F800882309F041
:100780001CCF8091F900882309F017CF90910801C0
:10079000992309F09FC186EE8CB9892F8F5F8093D2
:1007A000080180930901A1CF80E58CB980E197E22F
:1007B0007CDC66DE109209011092600020912E010F
:1007C000DECE80E593EC71DC80E593EC6EDC80E5B9
:1007D00093EC6BDC0FDE84CFC8DD182F88E893E143
:1007E00064DC809103012091EE00821709F41CC1A2
:1007F000112321F082E1809309011CB9222309F021
:10080000DCCE8091EF00882309F0D7CE82E180937F
:10081000090184EE8CB920912E01B1CEA6DD182FEE
:1008200088E893E142DC809101012091EE0082177B
:1008300009F4F2C0112321F082E1809309011CB96F
:10084000222309F0BACE8091EF00882309F0B5CEBB
:1008500082E18093090183EEDDCF87DD182F88E8E0
:1008600093E123DC80912A012091EE00821709F4A4
:10087000BDC0112321F082E1809309011CB922231C
:1008800009F09BCE8091EF00882309F096CE8091ED
:10089000F000882309F091CE8091F100882309F0BF
:1008A0008CCE82E18093090182EEB4CF5EDD182FF9
:1008B00088E893E1FADB809130012091EE00821705
:1008C00009F474C0112321F082E1809309011CB95D
:1008D000222309F072CE8091EF00882309F06DCEBB
:1008E00082E18093090181EE95CFB0DD13E180E5CF
:1008F00093ECDBDB115017FFFACFF2CE1092080118
:10090000C0E020912E013BCE82E58CB91092090106
:10091000AA9880E197E2C9DBAA9A80E197E2C5DB59
:10092000A89588E190E028E00FB6F894A89581BDDD
:100930000FBE21BD81E080932E01FFCF30910B01CE
:10094000393309F083CE40910C01493309F080CE50
:1009500020910D01293309F07DCE90910E0199333C
:1009600009F07ACE80910F01893309F077CE89E9B9
:100970008CB910920901AA9880E197E296DBAA9AB5
:1009800080E197E292DBA89588E190E028E00FB63D
:10099000F894A89581BD0FBE21BD81E080932E0102
:1009A000FFCF87E58CB910920901E9CD9091310113
:1009B0008091EF00981709F085CF8091E200809335
:1009C00032018091E300809333018091E4008093B1
:1009D00034018091E500809335018091E600809399
:1009E00036018091E700809337017ACE90912B01F8
:1009F0008091EF00981709F03CCF90912C018091E5
:100A0000F000981709F035CF90912D018091F100F9
:100A1000981709F02ECFD1CF909102018091EF006D
:100A2000981709F007CFC9CF909104018091EF008A
:100A3000981709F0DDCEC1CF909131018091EF0080
:100A4000981709F063CE90912A018091F0009817D1
:100A500009F05CCE90912B018091F100981709F07C
:100A600055CE90912C018091F200981709F04ECE4E
:100A700090912D018091F300981709F047CE909145
:100A800038018091F400981709F040CE9091390117
:100A90008091F500981709F039CE90913A01809134
:100AA000F600981709F032CE90913B018091F70043
:100AB000981709F02BCE90913C018091F80098177F
:100AC00009F024CE90913D018091F900981709F02A
:0E0AD0001DCE73CF82E18093090189EE9BCE8B
:00000001FF
