:1000000012C02CC02BC02AC029C028C027C026C0BF
:1000100025C024C023C02DC021C020C01FC01EC0C9
:100020001DC01CC01BC011241FBECFE5D4E0DEBF25
:10003000CDBF11E0A0E6B0E0E6E0F6E102C0059039
:100040000D92A630B107D9F721E0A6E0B1E001C0DA
:100050001D92AA38B207E1F7BDD6D3CAD1CF5D9BB6
:10006000FECF8CB980E090E008955F9BFECF8CB10D
:1000700008951F920F920FB60F9211248F939F93A2
:10008000EF93FF939BB18CB19C7141F58F3251F48A
:1000900090917001911110C081E0809370011092D5
:1000A00083011CC0813241F490917001913021F4A0
:1000B00082E08093700112C0E091830191E09E0F75
:1000C00090938301F0E0EA5FFE4F8083809183018B
:1000D000843120F01092700110928301FF91EF9112
:1000E0009F918F910F900FBE0F901F9018952FE04A
:1000F00088E190E00FB6F894A89581BD0FBE21BDB0
:1001000080E181BD81B5886081BDA8950895F8948E
:1001100004B600FE04C084B7807E84BF089504B690
:1001200001FE04C084B7807E84BF089504B602FE39
:1001300004C084B7807E84BF089504B603FE0CC05B
:1001400084B7807E84BF88E10FB6F89481BD11BC6E
:100150000FBE81E080936F01089518BA17BA84E04A
:1001600085BB8CE084BB12BA11BA13BE12BE1FBC91
:100170001EBC1DBC1CBC17BC16BC1BBC1ABC19BCCD
:1001800018BC12BC15BC14BC13BC15BE19BE92E041
:100190009BB998E99AB996E890BD10BC89B980E8F6
:1001A00088B910BE089581E080B98FEF83B984E0EB
:1001B00086BF0895989B0CC085E602C0815051F01F
:1001C0009AE19A95F1F700C09899F8CF80E00895E8
:1001D00080E008958FEF089583B386958170089528
:1001E00006B607FC05C000C000C006B607FEFBCF80
:1001F000089584EA86BFF4DF91B1987F81E098305A
:1002000009F480E08195089584EA86BFE9DF81B131
:10021000887F803129F4CEDF882319F086EF089596
:100220008FEF089583B984E886BFDADF089580E907
:1002300086BF06B604FC05C000C000C006B604FEBA
:10024000FBCF82E48A95F1F700C0B4DF08950F93E5
:100250001F93CF93DF93182F062FEA01CADF88235D
:10026000ECF0812F880FDEDF81B1887F883121F0AB
:1002700080E986BF8DEF12C0802FD4DF81B1887FE7
:10028000883249F48881CEDF81B1887F883229F4B1
:10029000CEDF80E003C08BEF01C08AEFDF91CF910A
:1002A0001F910F910895DF92EF92FF920F931F938A
:1002B000CF93DF93C82FD62FE42ED52E022F99DFB0
:1002C0008823A4F18C2F880FADDF81B1887F88311E
:1002D00021F080E986BF8DEF29C08D2FA3DF81B18A
:1002E000887F8832F1F480E09DDF81B1887F883299
:1002F000D1F410E0101611068CF4FE2CCE2DDD2D5D
:10030000899190DF81B1887F883279F48C2F8F19A1
:10031000992787FD90958017910794F388DF80E0F7
:1003200005C08BEF03C08BEF01C08AEFDF91CF9147
:100330001F910F91FF90EF90DF900895CF93DF937F
:100340001F92CDB7DEB7898321E0AE014F5F5F4FCB
:1003500063E580E47CDF0F90DF91CF910895F894FE
:1003600026E04CE751E069E580E49DDF789408954C
:10037000CF93DF931F92CDB7DEB789E08983F894DE
:1003800021E0AE014F5F5F4F60E580E460DF78946D
:100390000F90DF91CF910895CF93DF931F92CDB748
:1003A000DEB783E08983F89421E0AE014F5F5F4FB1
:1003B00060E580E44CDF78940F90DF91CF91089551
:1003C000CF93DF93EC01F89414DF88230CF43FC043
:1003D00080E828DF81B1887F883121F080E986BFFD
:1003E0008DEF35C08FE51EDF81B1887F883231F512
:1003F00082E018DF81B1887F883211F505DF88231C
:1004000034F181E80FDF81B1887F8034D9F484EC46
:1004100086BFE6DE81B1887F8035B1F483B184E8A0
:1004200086BF06B607FEFDCF81B1887F883571F49F
:1004300083B18883FCDE789480E009C08BEF07C02D
:100440008BEF05C08CEF03C089EF01C087EFDF9110
:10045000CF910895CF92DF92EF92FF920F931F9367
:10046000CF93DF93C82FD62F142F7901C2DE8823B4
:100470000CF469C08C2F880FD5DE81B1887F88315C
:1004800021F080E986BF8DEF5EC08D2FCBDE81B17C
:10049000887F883209F04CC0812FC4DE81B1887F0B
:1004A000883209F047C0B0DE88230CF44CC08C2F92
:1004B000880F8160B7DE81B1887F8034E9F584ECF4
:1004C00086BF8EDE81B1887F8035C1F583B110E0B3
:1004D0000150110910161106E4F4CE2CCE2DDF2D9B
:1004E0000F2EF4ECDF2EF02DD6BE7ADE81B1887FA0
:1004F000803531F5CE0101967C0123B12883482F48
:100500004C19552747FD50954017510714F4EC013D
:10051000EBCF84E886BF06B607FEFDCF81B1887FAA
:10052000883581F483B1F701808381DE80E00BC0E0
:100530008BEF09C08BEF07C08CEF05C089EF03C0BC
:1005400089EF01C087EFDF91CF911F910F91FF904D
:10055000EF90DF90CF9008950F93CF93DF93CDB7B7
:10056000DEB727970FB6F894DEBF0FBECDBFFE01F2
:10057000329686E0DF011D928A95E9F781E0898352
:1005800021E0AE014F5F5F4F67E580E460DE8111DF
:1005900025C001E09E012E5F3F4F40E06EE580E404
:1005A00059DF8A8186FDF5CF000006E09E012E5FAF
:1005B0003F4F40E16EE580E44DDF8FE18983BEDE91
:1005C000CE010296FDDE81E0898321E0AE014F5F1E
:1005D0005F4F66E580E43BDE81E001C080E0279666
:1005E0000FB6F894DEBF0FBECDBFDF91CF910F9154
:1005F0000895AA982FE788E391E021508040904029
:10060000E1F700C00000AA9A8FE097E20197F1F7A6
:1006100000C0000008950F931F93CF93DF931F92A4
:10062000CDB7DEB711E003C01F5F163609F101E058
:100630009E012F5F3F4F41E06EE580E40BDF8111AB
:100640000DC08981883AB1F02FE78AE196E0215008
:1006500080409040E1F700C00000E6CF2FEF83EC30
:1006600099E0215080409040E1F700C00000DCCFCD
:1006700080E001C081E00F90DF91CF911F910F9139
:100680000895989B0EC085E602C0815061F0EFE0AE
:10069000F7E23197F1F700C000009899F6CF80E0BB
:1006A000089580E008958FEF0895FF920F931F93B0
:1006B000CF93DF938C019DDD88230CF45CC080E830
:1006C000B1DD81B1887F883139F08CE790E0CCD4FE
:1006D00080E986BF8DEF4FC08FE5A4DD81B1887FB3
:1006E0008832F1F580E09EDD81B1887F8832D1F5D6
:1006F0008BDD88230CF43FC081E894DD81B1887FD5
:10070000803491F584EC86BF6BDD81B1887F8035C4
:1007100069F583B1E8010C5F1F4F0F2EF4ECFF2E3B
:10072000F02DF6BE5DDD81B1887F803509F59E0133
:100730002F5F3F4FF90183B188832017310711F0F4
:10074000E901EFCF84E886BF06B607FEFDCF81B191
:10075000887F883579F483B1808369DD80E00BC0C0
:100760008BEF09C08BEF07C08CEF05C089EF03C08A
:1007700089EF01C087EFDF91CF911F910F91FF901B
:1007800008950F93CF93DF9300D0CDB7DEB702E08B
:100790009E012F5F3F4F40E16EE580E45BDE8A8182
:1007A00090E0982F88272981822B0F900F90DF915E
:1007B000CF910F9108950F93CF93DF9300D0CDB7D2
:1007C000DEB702E09E012F5F3F4F42E16EE580E41D
:1007D00041DE8A8190E0982F88272981822B0F9013
:1007E0000F90DF91CF910F910895CF93DF931F92D8
:1007F000CDB7DEB78CE08983F89421E0AE014F5F7E
:100800005F4F60E580E423DD78940F90DF91CF9116
:1008100008950F93CF93DF9300D0CDB7DEB7F89450
:1008200027E0AC0169E580E43EDD89E0898321E0D1
:10083000AE014F5F5F4F60E580E409DD01E09E019E
:100840002E5F3F4F40E06EE580E404DE8A8186FD46
:10085000F5CF8DE0898321E0AE014F5F5F4F60E50A
:1008600080E4F5DC87E791E020DF78940F900F902B
:10087000DF91CF910F9108950F931F93CF93DF9343
:10088000F894B7DC88230CF44DC080E8CBDC81B150
:10089000887F883121F080E986BF8DEF43C08FE5E6
:1008A000C1DC81B1887F8832A1F58DE0BBDC81B1EC
:1008B000887F883281F5BBDC9CDC88239CF181E851
:1008C000B1DC81B1887F803441F5CAE1D1E010E02C
:1008D00004EC06BF85DC81B1887F803501F583B1EA
:1008E00089931F5F1B34A9F784E886BF06B607FE0D
:1008F000FDCF81B1887F8835A1F483B1E12FFF2737
:10090000E7FDF095E65EFE4F808391DC789480E011
:1009100009C08BEF07C08BEF05C08CEF03C089EFD8
:1009200001C087EFDF91CF911F910F9108950F9331
:100930001F93CF93DF93F8945CDC88230CF44DC0B5
:1009400080E870DC81B1887F883121F080E986BF42
:100950008DEF43C08FE566DC81B1887F8832A1F5D9
:100960008EE060DC81B1887F883281F560DC41DC1B
:1009700088239CF181E856DC81B1887F803441F581
:10098000CAE1D1E010E004EC06BF2ADC81B1887F27
:10099000803501F583B189931F5F1B34A9F784E883
:1009A00086BF06B607FEFDCF81B1887F8835A1F4EA
:1009B00083B1E12FFF27E7FDF095E65EFE4F8083D0
:1009C00036DC789480E009C08BEF07C08BEF05C060
:1009D0008CEF03C089EF01C087EFDF91CF911F91AA
:1009E0000F9108950F931F93CF93DF938C01EB0129
:1009F000B6DC8FE097E20197F1F700C00000B8DCA9
:100A0000EFE0F7E23197F1F700C0000010926D01BE
:100A100010926C018FE19EE40197F1F700C0000095
:100A200020916C0130916D012F5F3F4F30936D012C
:100A300020936C0187E791E038DE8091770186FF93
:100A400008C020916C0130916D012536310514F3F9
:100A500015C0EFE0F7E23197F1F700C0000091DE3A
:100A6000F801918380838FE097E20197F1F700C04E
:100A70000000A1DE9983888381E001C080E0DF91DE
:100A8000CF911F910F91089510927C0110927D01DA
:100A900010927E0110927F011092800110928101CC
:100AA000089580911B0180937C0180911C018093AB
:100AB0007D0180911D0180937E0180911E018093B4
:100AC0007F0180911F01809380018091200180939C
:100AD00081010895DF92EF92FF920F931F93CF93BE
:100AE000DF938C01D62E0097C1F0C0E0D0E00F2E2E
:100AF000F7E2EF2EF1E0FF2EF02D87E893E101976A
:100B0000F1F700C00000B8DEF70180818D1539F0E3
:100B10002196C017D10789F704C080E003C081E0A7
:100B200001C080E0DF91CF911F910F91FF90EF9076
:100B3000DF900895AF92BF92CF92DF92EF92FF9233
:100B40000F931F93CF93DF938C01B62EA42E0097A3
:100B500011F1C0E0D0E00F2EF7E2EF2EF1E0FF2E12
:100B6000F02D0F2EF9E2CF2EF1E0DF2EF02D87E8E9
:100B700093E10197F1F700C000007EDEF70180816C
:100B80008B1104C0F60180818A1539F02196C017B7
:100B9000D10769F704C080E003C081E001C080E0B4
:100BA000DF91CF911F910F91FF90EF90DF90CF9049
:100BB000BF90AF9008952F923F924F925F926F92A5
:100BC0007F928F929F92AF92BF92CF92DF92EF92DD
:100BD000FF920F931F93CF93DF93EC01009709F4DB
:100BE0005FC0412C512C0F2EF7E2EF2EF1E0FF2ECB
:100BF000F02D01E711E00F2EF9E2AF2EF1E0BF2E4C
:100C0000F02D0F2EF2E7CF2EF1E0DF2EF02D0F2E7C
:100C1000FBE28F2EF1E09F2EF02D0F2EF3E76F2ECB
:100C2000F1E07F2EF02D0F2EF4E72F2EF1E03F2E76
:100C3000F02D87E893E10197F1F700C0000077DE1F
:100C4000F7019081F8018081981323C0F50190810C
:100C5000F601808198131DC0F4019081F301808119
:100C6000981317C0EDE2F1E09081F10180819813B3
:100C700010C0EFE2F1E09081E5E7F1E080819813A8
:100C800008C0E1E3F1E09081E6E7F1E080819817A8
:100C900049F0FFEF4F1A5F0A4C165D0651F604C08B
:100CA00080E003C081E001C080E0DF91CF911F911F
:100CB0000F91FF90EF90DF90CF90BF90AF909F90FB
:100CC0008F907F906F905F904F903F902F900895FE
:100CD00080918301882359F080E0E82FF0E0EA5FFB
:100CE000FE4F10828F5F909183018917B0F31092AD
:100CF00070011092830108950F931F93CF93DF9398
:100D000080910801809371018091090180937201A3
:100D100080910A018093730180910B01809374018B
:100D200080910C018093750180910D018093760173
:100D30008FE290E093D1C1E7D1E007E711E089911C
:100D400090E08CD1C017D107D1F781E290E086D135
:100D5000BFDF809171018933E1F4809172018933A1
:100D6000C1F4809173018933A1F4809174018933B6
:100D700081F480917501893361F480917601893322
:100D800041F48DE890E09F938F9357D10F900F908F
:100D9000FFCFDF91CF911F910F910895AB9829DC80
:100DA0002FE789EA93E0215080409040E1F700C0AE
:100DB000000067DC882321F08FE990E055D103C063
:100DC0008AEA90E051D127DCC7DB88EB90E04CD178
:100DD0008ED90895CF93DF9300D000D0CDB7DEB782
:100DE0008EE690E0909387018093860180E690E004
:100DF000909385018093840110926F0188D9ADD9B9
:100E0000CDDFD1D9789406E011E00F2EF1E76F2EF7
:100E1000F1E07F2EF02D0F2EF3E78F2EF1E09F2EC5
:100E2000F02D0F2EF2E7AF2EF1E0BF2EF02D0F2E9A
:100E3000F1EECF2EF0E0DF2EF02D809170018230A8
:100E400009F0EAC0F8018081803709F0BFC08091C5
:100E500008018A3308F0BAC0809109018A3308F08A
:100E6000B5C080910A018A3308F0B0C080910B01AF
:100E70008A3308F0ABC080910C018A3308F0A6C019
:100E800080910D018A3308F0A1C036DFF12C0F2EBE
:100E9000F4E72F2EF1E03F2EF02D0F2EF5E74F2E29
:100EA000F1E05F2EF02DEE24E39496D9813009F421
:100EB00073DAEADDBE016D5F7F4FCE01019692DDF0
:100EC000813009F06EC0F301608189819A8102DE70
:100ED000813009F066C0E5DDBE016D5F7F4FCE0158
:100EE000019680DD813009F05CC0F4014081F5019C
:100EF000608189819A811EDE813009F052C0D1DD86
:100F0000BE016D5F7F4FCE0101966CDD813009F02F
:100F100048C0F101608189819A81DCDD813009F06E
:100F200040C0BFDDBE016D5F7F4FCE0101965ADD2F
:100F30008130B9F5F201608189819A81CBDD813000
:100F400081F5AFDDBE016D5F7F4FCE0101964ADDB9
:100F5000813039F58B819C812EDE813011F5A89589
:100F6000A0DD8CE791E055DC87E893E10197F1F78C
:100F700000C0000099990AC010926A0187EC90E0C5
:100F80009F938F935AD00F900F9045C081E080932C
:100F90006A0185ED90E09F938F934FD00F900F9053
:100FA0003AC0A89522DCF11007C0DF92CF9245D05D
:100FB000FE2C0F900F9079CF10926A018BEE90E08B
:100FC0009F938F933AD00F900F9025C0F8018081A6
:100FD000803709F5809108018D36E9F48091090187
:100FE0008037C9F480910A018333A9F480910C0100
:100FF000833789F480910D01843769F480910E0163
:10100000813649F480910F01823729F480911001D3
:10101000843709F4FFCF5CDE80916A01813059F496
:10102000999909C010926A0188EF90E09F938F937D
:1010300004D00F900F90A89500CFA0E0B0E0E2E2BE
:10104000F8E0B8C2FE01359661917191AF018091CF
:1010500086019091870135D0E2E0C8C26091860197
:101060007091870107D208950F931F93CF93DF9359
:10107000E0918601F0918701238121FF1BC0EC01E3
:1010800000E010E089916091860170918701DB0199
:101090001896ED91FC911997882331F00995892BC9
:1010A00089F30FEF1FEFEECF8AE00995892B11F43A
:1010B000C80102C08FEF9FEFDF91CF911F910F9179
:1010C0000895ACE0B0E0E6E6F8E064C27C016B01B4
:1010D0008A01FC0117821682838181FFB0C1CE0193
:1010E00001964C01F7019381F60193FD859193FFE1
:1010F00081916F01882309F49EC1853239F493FDF3
:10110000859193FF81916F01853221F4B70190E0C1
:10111000B1D1E8CF512C312C20E02032A0F48B3219
:1011200069F030F4803259F0833269F420612CC0C8
:101130008D3239F0803339F4216026C0226024607A
:1011400023C0286021C027FD27C030ED380F3A307A
:1011500078F426FF06C0FAE05F9E300D1124532E6E
:1011600013C08AE0389E300D1124332E20620CC04B
:101170008E3221F426FD5FC1206406C08C3611F446
:10118000206802C0883641F4F60193FD859193FFF3
:1011900081916F018111C1CF982F9F7D955493301C
:1011A00028F40C5F1F4FFFE3F9830DC0833631F045
:1011B000833771F0833509F057C021C0F801808171
:1011C00089830E5F1F4F44244394512C540114C053
:1011D0003801F2E06F0E711CF801A080B18026FF8B
:1011E00003C0652D70E002C06FEF7FEFC5012C8753
:1011F00036D12C0183012C852F77222E16C0380181
:10120000F2E06F0E711CF801A080B18026FF03C0D0
:10121000652D70E002C06FEF7FEFC5012C8714D100
:101220002C012C852068222E830123FC19C0832DDC
:1012300090E048165906A0F4B70180E290E01AD178
:101240003A94F5CFF50127FC859127FE81915F0146
:10125000B70190E00FD131103A94F1E04F1A5108E4
:101260004114510479F7DEC0843611F0893631F526
:10127000F80127FF07C060817181828193810C5F33
:101280001F4F08C060817181882777FD8095982F56
:101290000E5F1F4F2F76B22E97FF09C09095809555
:1012A000709561957F4F8F4F9F4F2068B22E2AE037
:1012B00030E0A40111D1A82EA81843C0853729F425
:1012C0002F7EB22E2AE030E025C0F22FF97FBF2E0C
:1012D0008F36C1F018F4883579F0ADC0803719F039
:1012E000883721F0A8C02F2F2061B22EB4FE0DC088
:1012F0008B2D8460B82E09C024FF0AC09F2F9660F2
:10130000B92E06C028E030E005C020E130E002C080
:1013100020E132E0F801B7FE07C06081718182816F
:1013200093810C5F1F4F06C06081718180E090E067
:101330000E5F1F4FA401D0D0A82EA818FB2DFF7759
:10134000BF2EB6FE0BC02B2D2E7FA51450F4B4FE7D
:101350000AC0B2FC08C02B2D2E7E05C07A2C2B2D86
:1013600003C07A2C01C0752C24FF0DC0FE01EA0DCC
:10137000F11D8081803311F4297E09C022FF06C04F
:101380007394739404C0822F867809F0739423FDBC
:1013900012C020FF06C05A2C731418F4530C5718AF
:1013A000732C731460F4B70180E290E02C8762D054
:1013B00073942C85F6CF731410F4371801C0312CB8
:1013C00024FF11C0B70180E390E02C8753D02C8517
:1013D00022FF16C021FF03C088E590E002C088E725
:1013E00090E0B7010CC0822F867851F021FD02C039
:1013F00080E201C08BE227FD8DE2B70190E03AD098
:10140000A51430F4B70180E390E034D05A94F8CFBB
:10141000AA94F401EA0DF11D8081B70190E02AD071
:10142000A110F6CF332009F45DCEB70180E290E041
:1014300021D03A94F7CFF7018681978102C08FEFD0
:101440009FEF2C96E2E1C2C0FC0105906150704014
:101450000110D8F7809590958E0F9F1F0895FC017D
:101460006150704001900110D8F7809590958E0FD3
:101470009F1F08950F931F93CF93DF93182F092F6A
:10148000EB018B8181FD03C08FEF9FEF20C082FFB6
:1014900010C04E815F812C813D81421753077CF43F
:1014A000E881F9819F012F5F3F4F398328831083A3
:1014B00006C0E885F985812F0995892B29F72E81AA
:1014C0003F812F5F3F4F3F832E83812F902FDF91EE
:1014D000CF911F910F910895FA01AA27283051F159
:1014E000203181F1E8946F936E7F6E5F7F4F8F4F55
:1014F0009F4FAF4FB1E03ED0B4E03CD0670F781FB4
:10150000891F9A1FA11D680F791F8A1F911DA11D98
:101510006A0F711D811D911DA11D20D009F46894D1
:101520003F912AE0269F11243019305D3193DEF679
:10153000CF010895462F4770405D4193B3E00FD02F
:10154000C9F7F6CF462F4F70405D4A3318F0495D1A
:1015500031FD4052419302D0A9F7EACFB4E0A695FD
:101560009795879577956795BA95C9F7009761051F
:10157000710508959B01AC010A2E06945795479575
:1015800037952795BA95C9F7620F731F841F951F6A
:10159000A01D08952F923F924F925F926F927F927B
:1015A0008F929F92AF92BF92CF92DF92EF92FF9273
:1015B0000F931F93CF93DF93CDB7DEB7CA1BDB0B1F
:1015C0000FB6F894DEBF0FBECDBF09942A883988C4
:1015D00048885F846E847D848C849B84AA84B984CB
:1015E000C884DF80EE80FD800C811B81AA81B981D7
:1015F000CE0FD11D0FB6F894DEBF0FBECDBFED01EB
:061600000895F894FFCFED
:10160600000000010000000000003500000000009E
:101616000002000000002F00000000004641494C77
:101626005F44455649445F4E41434B0D002F576179
:101636007463682D646F6720726573657421004258
:1016460075737920486967680D004E6F6E20427584
:101656007379204C6F770D002F4D503320496E69FA
:1016660074204F4B210D002F6D20706C6179206620
:1016760061696C21002F6D20706C6179206F6B2180
:10168600002F6D20726574727921002F6D206E6FA8
:1016960074206C69737421002F6D20706C61792041
:0616A60073746F70210057
:00000001FF
